{
  "_format": "hh-sol-artifact-1",
  "contractName": "RossmariePass",
  "sourceName": "contracts/RossmariePass.sol",
  "abi": [
    {
      "inputs": [
        {
          "internalType": "string",
          "name": "_tokenURI",
          "type": "string"
        }
      ],
      "stateMutability": "nonpayable",
      "type": "constructor"
    },
    {
      "anonymous": false,
      "inputs": [
        {
          "indexed": true,
          "internalType": "address",
          "name": "owner",
          "type": "address"
        },
        {
          "indexed": true,
          "internalType": "address",
          "name": "approved",
          "type": "address"
        },
        {
          "indexed": true,
          "internalType": "uint256",
          "name": "tokenId",
          "type": "uint256"
        }
      ],
      "name": "Approval",
      "type": "event"
    },
    {
      "anonymous": false,
      "inputs": [
        {
          "indexed": true,
          "internalType": "address",
          "name": "owner",
          "type": "address"
        },
        {
          "indexed": true,
          "internalType": "address",
          "name": "operator",
          "type": "address"
        },
        {
          "indexed": false,
          "internalType": "bool",
          "name": "approved",
          "type": "bool"
        }
      ],
      "name": "ApprovalForAll",
      "type": "event"
    },
    {
      "anonymous": false,
      "inputs": [
        {
          "indexed": true,
          "internalType": "address",
          "name": "by",
          "type": "address"
        },
        {
          "indexed": false,
          "internalType": "uint256",
          "name": "tokenId",
          "type": "uint256"
        },
        {
          "indexed": false,
          "internalType": "uint256",
          "name": "timestamp",
          "type": "uint256"
        }
      ],
      "name": "Burned",
      "type": "event"
    },
    {
      "anonymous": false,
      "inputs": [
        {
          "indexed": true,
          "internalType": "address",
          "name": "to",
          "type": "address"
        },
        {
          "indexed": false,
          "internalType": "uint256",
          "name": "tokenId",
          "type": "uint256"
        },
        {
          "indexed": false,
          "internalType": "uint256",
          "name": "timestamp",
          "type": "uint256"
        }
      ],
      "name": "Minted",
      "type": "event"
    },
    {
      "anonymous": false,
      "inputs": [
        {
          "indexed": false,
          "internalType": "address",
          "name": "account",
          "type": "address"
        }
      ],
      "name": "Paused",
      "type": "event"
    },
    {
      "anonymous": false,
      "inputs": [
        {
          "indexed": true,
          "internalType": "bytes32",
          "name": "role",
          "type": "bytes32"
        },
        {
          "indexed": true,
          "internalType": "bytes32",
          "name": "previousAdminRole",
          "type": "bytes32"
        },
        {
          "indexed": true,
          "internalType": "bytes32",
          "name": "newAdminRole",
          "type": "bytes32"
        }
      ],
      "name": "RoleAdminChanged",
      "type": "event"
    },
    {
      "anonymous": false,
      "inputs": [
        {
          "indexed": true,
          "internalType": "bytes32",
          "name": "role",
          "type": "bytes32"
        },
        {
          "indexed": true,
          "internalType": "address",
          "name": "account",
          "type": "address"
        },
        {
          "indexed": true,
          "internalType": "address",
          "name": "sender",
          "type": "address"
        }
      ],
      "name": "RoleGranted",
      "type": "event"
    },
    {
      "anonymous": false,
      "inputs": [
        {
          "indexed": true,
          "internalType": "bytes32",
          "name": "role",
          "type": "bytes32"
        },
        {
          "indexed": true,
          "internalType": "address",
          "name": "account",
          "type": "address"
        },
        {
          "indexed": true,
          "internalType": "address",
          "name": "sender",
          "type": "address"
        }
      ],
      "name": "RoleRevoked",
      "type": "event"
    },
    {
      "anonymous": false,
      "inputs": [
        {
          "indexed": true,
          "internalType": "address",
          "name": "from",
          "type": "address"
        },
        {
          "indexed": true,
          "internalType": "address",
          "name": "to",
          "type": "address"
        },
        {
          "indexed": true,
          "internalType": "uint256",
          "name": "tokenId",
          "type": "uint256"
        }
      ],
      "name": "Transfer",
      "type": "event"
    },
    {
      "anonymous": false,
      "inputs": [
        {
          "indexed": false,
          "internalType": "bool",
          "name": "locked",
          "type": "bool"
        }
      ],
      "name": "TransfersLocked",
      "type": "event"
    },
    {
      "anonymous": false,
      "inputs": [
        {
          "indexed": false,
          "internalType": "address",
          "name": "account",
          "type": "address"
        }
      ],
      "name": "Unpaused",
      "type": "event"
    },
    {
      "inputs": [],
      "name": "ADMIN_ROLE",
      "outputs": [
        {
          "internalType": "bytes32",
          "name": "",
          "type": "bytes32"
        }
      ],
      "stateMutability": "view",
      "type": "function"
    },
    {
      "inputs": [],
      "name": "BURNER_ROLE",
      "outputs": [
        {
          "internalType": "bytes32",
          "name": "",
          "type": "bytes32"
        }
      ],
      "stateMutability": "view",
      "type": "function"
    },
    {
      "inputs": [],
      "name": "DEFAULT_ADMIN_ROLE",
      "outputs": [
        {
          "internalType": "bytes32",
          "name": "",
          "type": "bytes32"
        }
      ],
      "stateMutability": "view",
      "type": "function"
    },
    {
      "inputs": [],
      "name": "PAUSER_ROLE",
      "outputs": [
        {
          "internalType": "bytes32",
          "name": "",
          "type": "bytes32"
        }
      ],
      "stateMutability": "view",
      "type": "function"
    },
    {
      "inputs": [
        {
          "internalType": "address",
          "name": "to",
          "type": "address"
        },
        {
          "internalType": "uint256",
          "name": "tokenId",
          "type": "uint256"
        }
      ],
      "name": "approve",
      "outputs": [],
      "stateMutability": "nonpayable",
      "type": "function"
    },
    {
      "inputs": [
        {
          "internalType": "address",
          "name": "owner",
          "type": "address"
        }
      ],
      "name": "balanceOf",
      "outputs": [
        {
          "internalType": "uint256",
          "name": "",
          "type": "uint256"
        }
      ],
      "stateMutability": "view",
      "type": "function"
    },
    {
      "inputs": [
        {
          "internalType": "uint256",
          "name": "tokenId",
          "type": "uint256"
        }
      ],
      "name": "burn",
      "outputs": [],
      "stateMutability": "nonpayable",
      "type": "function"
    },
    {
      "inputs": [
        {
          "internalType": "uint256",
          "name": "tokenId",
          "type": "uint256"
        }
      ],
      "name": "getApproved",
      "outputs": [
        {
          "internalType": "address",
          "name": "",
          "type": "address"
        }
      ],
      "stateMutability": "view",
      "type": "function"
    },
    {
      "inputs": [
        {
          "internalType": "bytes32",
          "name": "role",
          "type": "bytes32"
        }
      ],
      "name": "getRoleAdmin",
      "outputs": [
        {
          "internalType": "bytes32",
          "name": "",
          "type": "bytes32"
        }
      ],
      "stateMutability": "view",
      "type": "function"
    },
    {
      "inputs": [
        {
          "internalType": "bytes32",
          "name": "role",
          "type": "bytes32"
        },
        {
          "internalType": "address",
          "name": "account",
          "type": "address"
        }
      ],
      "name": "grantRole",
      "outputs": [],
      "stateMutability": "nonpayable",
      "type": "function"
    },
    {
      "inputs": [
        {
          "internalType": "address",
          "name": "",
          "type": "address"
        }
      ],
      "name": "hasMinted",
      "outputs": [
        {
          "internalType": "bool",
          "name": "",
          "type": "bool"
        }
      ],
      "stateMutability": "view",
      "type": "function"
    },
    {
      "inputs": [
        {
          "internalType": "bytes32",
          "name": "role",
          "type": "bytes32"
        },
        {
          "internalType": "address",
          "name": "account",
          "type": "address"
        }
      ],
      "name": "hasRole",
      "outputs": [
        {
          "internalType": "bool",
          "name": "",
          "type": "bool"
        }
      ],
      "stateMutability": "view",
      "type": "function"
    },
    {
      "inputs": [
        {
          "internalType": "address",
          "name": "owner",
          "type": "address"
        },
        {
          "internalType": "address",
          "name": "operator",
          "type": "address"
        }
      ],
      "name": "isApprovedForAll",
      "outputs": [
        {
          "internalType": "bool",
          "name": "",
          "type": "bool"
        }
      ],
      "stateMutability": "view",
      "type": "function"
    },
    {
      "inputs": [
        {
          "internalType": "bool",
          "name": "_locked",
          "type": "bool"
        }
      ],
      "name": "lockTransfers",
      "outputs": [],
      "stateMutability": "nonpayable",
      "type": "function"
    },
    {
      "inputs": [],
      "name": "mint",
      "outputs": [],
      "stateMutability": "nonpayable",
      "type": "function"
    },
    {
      "inputs": [],
      "name": "name",
      "outputs": [
        {
          "internalType": "string",
          "name": "",
          "type": "string"
        }
      ],
      "stateMutability": "view",
      "type": "function"
    },
    {
      "inputs": [
        {
          "internalType": "uint256",
          "name": "tokenId",
          "type": "uint256"
        }
      ],
      "name": "ownerOf",
      "outputs": [
        {
          "internalType": "address",
          "name": "",
          "type": "address"
        }
      ],
      "stateMutability": "view",
      "type": "function"
    },
    {
      "inputs": [],
      "name": "pause",
      "outputs": [],
      "stateMutability": "nonpayable",
      "type": "function"
    },
    {
      "inputs": [],
      "name": "paused",
      "outputs": [
        {
          "internalType": "bool",
          "name": "",
          "type": "bool"
        }
      ],
      "stateMutability": "view",
      "type": "function"
    },
    {
      "inputs": [
        {
          "internalType": "bytes32",
          "name": "role",
          "type": "bytes32"
        },
        {
          "internalType": "address",
          "name": "account",
          "type": "address"
        }
      ],
      "name": "renounceRole",
      "outputs": [],
      "stateMutability": "nonpayable",
      "type": "function"
    },
    {
      "inputs": [
        {
          "internalType": "bytes32",
          "name": "role",
          "type": "bytes32"
        },
        {
          "internalType": "address",
          "name": "account",
          "type": "address"
        }
      ],
      "name": "revokeRole",
      "outputs": [],
      "stateMutability": "nonpayable",
      "type": "function"
    },
    {
      "inputs": [
        {
          "internalType": "address",
          "name": "from",
          "type": "address"
        },
        {
          "internalType": "address",
          "name": "to",
          "type": "address"
        },
        {
          "internalType": "uint256",
          "name": "tokenId",
          "type": "uint256"
        }
      ],
      "name": "safeTransferFrom",
      "outputs": [],
      "stateMutability": "nonpayable",
      "type": "function"
    },
    {
      "inputs": [
        {
          "internalType": "address",
          "name": "from",
          "type": "address"
        },
        {
          "internalType": "address",
          "name": "to",
          "type": "address"
        },
        {
          "internalType": "uint256",
          "name": "tokenId",
          "type": "uint256"
        },
        {
          "internalType": "bytes",
          "name": "data",
          "type": "bytes"
        }
      ],
      "name": "safeTransferFrom",
      "outputs": [],
      "stateMutability": "nonpayable",
      "type": "function"
    },
    {
      "inputs": [
        {
          "internalType": "address",
          "name": "operator",
          "type": "address"
        },
        {
          "internalType": "bool",
          "name": "approved",
          "type": "bool"
        }
      ],
      "name": "setApprovalForAll",
      "outputs": [],
      "stateMutability": "nonpayable",
      "type": "function"
    },
    {
      "inputs": [
        {
          "internalType": "string",
          "name": "_newTokenURI",
          "type": "string"
        }
      ],
      "name": "setTokenURI",
      "outputs": [],
      "stateMutability": "nonpayable",
      "type": "function"
    },
    {
      "inputs": [
        {
          "internalType": "bytes4",
          "name": "interfaceId",
          "type": "bytes4"
        }
      ],
      "name": "supportsInterface",
      "outputs": [
        {
          "internalType": "bool",
          "name": "",
          "type": "bool"
        }
      ],
      "stateMutability": "view",
      "type": "function"
    },
    {
      "inputs": [],
      "name": "symbol",
      "outputs": [
        {
          "internalType": "string",
          "name": "",
          "type": "string"
        }
      ],
      "stateMutability": "view",
      "type": "function"
    },
    {
      "inputs": [
        {
          "internalType": "uint256",
          "name": "index",
          "type": "uint256"
        }
      ],
      "name": "tokenByIndex",
      "outputs": [
        {
          "internalType": "uint256",
          "name": "",
          "type": "uint256"
        }
      ],
      "stateMutability": "view",
      "type": "function"
    },
    {
      "inputs": [
        {
          "internalType": "address",
          "name": "owner",
          "type": "address"
        },
        {
          "internalType": "uint256",
          "name": "index",
          "type": "uint256"
        }
      ],
      "name": "tokenOfOwnerByIndex",
      "outputs": [
        {
          "internalType": "uint256",
          "name": "",
          "type": "uint256"
        }
      ],
      "stateMutability": "view",
      "type": "function"
    },
    {
      "inputs": [
        {
          "internalType": "uint256",
          "name": "tokenId",
          "type": "uint256"
        }
      ],
      "name": "tokenURI",
      "outputs": [
        {
          "internalType": "string",
          "name": "",
          "type": "string"
        }
      ],
      "stateMutability": "view",
      "type": "function"
    },
    {
      "inputs": [],
      "name": "totalMinted",
      "outputs": [
        {
          "internalType": "uint256",
          "name": "",
          "type": "uint256"
        }
      ],
      "stateMutability": "view",
      "type": "function"
    },
    {
      "inputs": [],
      "name": "totalSupply",
      "outputs": [
        {
          "internalType": "uint256",
          "name": "",
          "type": "uint256"
        }
      ],
      "stateMutability": "view",
      "type": "function"
    },
    {
      "inputs": [
        {
          "internalType": "address",
          "name": "from",
          "type": "address"
        },
        {
          "internalType": "address",
          "name": "to",
          "type": "address"
        },
        {
          "internalType": "uint256",
          "name": "tokenId",
          "type": "uint256"
        }
      ],
      "name": "transferFrom",
      "outputs": [],
      "stateMutability": "nonpayable",
      "type": "function"
    },
    {
      "inputs": [],
      "name": "transfersLocked",
      "outputs": [
        {
          "internalType": "bool",
          "name": "",
          "type": "bool"
        }
      ],
      "stateMutability": "view",
      "type": "function"
    },
    {
      "inputs": [],
      "name": "unpause",
      "outputs": [],
      "stateMutability": "nonpayable",
      "type": "function"
    }
  ],
  "bytecode": "0x60806040523480156200001157600080fd5b5060405162004fe438038062004fe4833981810160405281019062000037919062000489565b6040518060400160405280601581526020017f526f73736d61726965204d656d626572205061737300000000000000000000008152506040518060400160405280600381526020017f524d5000000000000000000000000000000000000000000000000000000000008152508160009081620000b4919062000725565b508060019081620000c6919062000725565b5050506000600b60006101000a81548160ff021916908315150217905550620000f96000801b336200019160201b60201c565b6200012b7f3c11d16cbaffd01df69ce1c404f6340ee057498f5f00246190ea54220576a848336200019160201b60201c565b6200015d7f65d7a28e3265b37a6474929f336521b332c1681b933f6cb9f3376673440d862a336200019160201b60201c565b80600c90816200016e919062000725565b506001600f60006101000a81548160ff021916908315150217905550506200080c565b620001a382826200028360201b60201c565b6200027f576001600a600084815260200190815260200160002060000160008373ffffffffffffffffffffffffffffffffffffffff1673ffffffffffffffffffffffffffffffffffffffff16815260200190815260200160002060006101000a81548160ff02191690831515021790555062000224620002ee60201b60201c565b73ffffffffffffffffffffffffffffffffffffffff168173ffffffffffffffffffffffffffffffffffffffff16837f2f8788117e7eff1d82e926ec794901d17c78024a50270940304540a733656f0d60405160405180910390a45b5050565b6000600a600084815260200190815260200160002060000160008373ffffffffffffffffffffffffffffffffffffffff1673ffffffffffffffffffffffffffffffffffffffff16815260200190815260200160002060009054906101000a900460ff16905092915050565b600033905090565b6000604051905090565b600080fd5b600080fd5b600080fd5b600080fd5b6000601f19601f8301169050919050565b7f4e487b7100000000000000000000000000000000000000000000000000000000600052604160045260246000fd5b6200035f8262000314565b810181811067ffffffffffffffff8211171562000381576200038062000325565b5b80604052505050565b600062000396620002f6565b9050620003a4828262000354565b919050565b600067ffffffffffffffff821115620003c757620003c662000325565b5b620003d28262000314565b9050602081019050919050565b60005b83811015620003ff578082015181840152602081019050620003e2565b60008484015250505050565b6000620004226200041c84620003a9565b6200038a565b9050828152602081018484840111156200044157620004406200030f565b5b6200044e848285620003df565b509392505050565b600082601f8301126200046e576200046d6200030a565b5b8151620004808482602086016200040b565b91505092915050565b600060208284031215620004a257620004a162000300565b5b600082015167ffffffffffffffff811115620004c357620004c262000305565b5b620004d18482850162000456565b91505092915050565b600081519050919050565b7f4e487b7100000000000000000000000000000000000000000000000000000000600052602260045260246000fd5b600060028204905060018216806200052d57607f821691505b602082108103620005435762000542620004e5565b5b50919050565b60008190508160005260206000209050919050565b60006020601f8301049050919050565b600082821b905092915050565b600060088302620005ad7fffffffffffffffffffffffffffffffffffffffffffffffffffffffffffffffff826200056e565b620005b986836200056e565b95508019841693508086168417925050509392505050565b6000819050919050565b6000819050919050565b60006200060662000600620005fa84620005d1565b620005db565b620005d1565b9050919050565b6000819050919050565b6200062283620005e5565b6200063a62000631826200060d565b8484546200057b565b825550505050565b600090565b6200065162000642565b6200065e81848462000617565b505050565b5b8181101562000686576200067a60008262000647565b60018101905062000664565b5050565b601f821115620006d5576200069f8162000549565b620006aa846200055e565b81016020851015620006ba578190505b620006d2620006c9856200055e565b83018262000663565b50505b505050565b600082821c905092915050565b6000620006fa60001984600802620006da565b1980831691505092915050565b6000620007158383620006e7565b9150826002028217905092915050565b6200073082620004da565b67ffffffffffffffff8111156200074c576200074b62000325565b5b62000758825462000514565b620007658282856200068a565b600060209050601f8311600181146200079d576000841562000788578287015190505b62000794858262000707565b86555062000804565b601f198416620007ad8662000549565b60005b82811015620007d757848901518255600182019150602085019450602081019050620007b0565b86831015620007f75784890151620007f3601f891682620006e7565b8355505b6001600288020188555050505b505050505050565b6147c8806200081c6000396000f3fe608060405234801561001057600080fd5b50600436106102115760003560e01c80634f6ccce711610125578063a217fddf116100ad578063c87b56dd1161007c578063c87b56dd146105ee578063d547741f1461061e578063e0df5b6f1461063a578063e63ab1e914610656578063e985e9c51461067457610211565b8063a217fddf1461057a578063a22cb46514610598578063a2309ff8146105b4578063b88d4fde146105d257610211565b806375b238fc116100f457806375b238fc146104e657806383f1211b146105045780638456cb591461052257806391d148541461052c57806395d89b411461055c57610211565b80634f6ccce7146104385780635c975abb146104685780636352211e1461048657806370a08231146104b657610211565b8063282c51f3116101a857806337b545371161017757806337b54537146103aa57806338e21cce146103c65780633f4ba83a146103f657806342842e0e1461040057806342966c681461041c57610211565b8063282c51f3146103245780632f2ff15d146103425780632f745c591461035e57806336568abe1461038e57610211565b80631249c58b116101e45780631249c58b146102b057806318160ddd146102ba57806323b872dd146102d8578063248a9ca3146102f457610211565b806301ffc9a71461021657806306fdde0314610246578063081812fc14610264578063095ea7b314610294575b600080fd5b610230600480360381019061022b9190612ed6565b6106a4565b60405161023d9190612f1e565b60405180910390f35b61024e6106b6565b60405161025b9190612fc9565b60405180910390f35b61027e60048036038101906102799190613021565b610748565b60405161028b919061308f565b60405180910390f35b6102ae60048036038101906102a991906130d6565b61078e565b005b6102b86108a5565b005b6102c2610a0e565b6040516102cf9190613125565b60405180910390f35b6102f260048036038101906102ed9190613140565b610a1b565b005b61030e600480360381019061030991906131c9565b610a7b565b60405161031b9190613205565b60405180910390f35b61032c610a9b565b6040516103399190613205565b60405180910390f35b61035c60048036038101906103579190613220565b610abf565b005b610378600480360381019061037391906130d6565b610ae0565b6040516103859190613125565b60405180910390f35b6103a860048036038101906103a39190613220565b610b85565b005b6103c460048036038101906103bf919061328c565b610c08565b005b6103e060048036038101906103db91906132b9565b610c6a565b6040516103ed9190612f1e565b60405180910390f35b6103fe610c8a565b005b61041a60048036038101906104159190613140565b610cbf565b005b61043660048036038101906104319190613021565b610cdf565b005b610452600480360381019061044d9190613021565b610eb3565b60405161045f9190613125565b60405180910390f35b610470610f24565b60405161047d9190612f1e565b60405180910390f35b6104a0600480360381019061049b9190613021565b610f3b565b6040516104ad919061308f565b60405180910390f35b6104d060048036038101906104cb91906132b9565b610fc1565b6040516104dd9190613125565b60405180910390f35b6104ee611078565b6040516104fb9190613205565b60405180910390f35b61050c61107f565b6040516105199190612f1e565b60405180910390f35b61052a611092565b005b61054660048036038101906105419190613220565b6110c7565b6040516105539190612f1e565b60405180910390f35b610564611132565b6040516105719190612fc9565b60405180910390f35b6105826111c4565b60405161058f9190613205565b60405180910390f35b6105b260048036038101906105ad91906132e6565b6111cb565b005b6105bc6111e1565b6040516105c99190613125565b60405180910390f35b6105ec60048036038101906105e7919061345b565b6111eb565b005b61060860048036038101906106039190613021565b61124d565b6040516106159190612fc9565b60405180910390f35b61063860048036038101906106339190613220565b611358565b005b610654600480360381019061064f919061357f565b611379565b005b61065e61139a565b60405161066b9190613205565b60405180910390f35b61068e600480360381019061068991906135c8565b6113be565b60405161069b9190612f1e565b60405180910390f35b60006106af82611452565b9050919050565b6060600080546106c590613637565b80601f01602080910402602001604051908101604052809291908181526020018280546106f190613637565b801561073e5780601f106107135761010080835404028352916020019161073e565b820191906000526020600020905b81548152906001019060200180831161072157829003601f168201915b5050505050905090565b6000610753826114cc565b6004600083815260200190815260200160002060009054906101000a900473ffffffffffffffffffffffffffffffffffffffff169050919050565b600061079982610f3b565b90508073ffffffffffffffffffffffffffffffffffffffff168373ffffffffffffffffffffffffffffffffffffffff1603610809576040517f08c379a0000000000000000000000000000000000000000000000000000000008152600401610800906136da565b60405180910390fd5b8073ffffffffffffffffffffffffffffffffffffffff16610828611517565b73ffffffffffffffffffffffffffffffffffffffff161480610857575061085681610851611517565b6113be565b5b610896576040517f08c379a000000000000000000000000000000000000000000000000000000000815260040161088d9061376c565b60405180910390fd5b6108a0838361151f565b505050565b6108ad6115d8565b600e60003373ffffffffffffffffffffffffffffffffffffffff1673ffffffffffffffffffffffffffffffffffffffff16815260200190815260200160002060009054906101000a900460ff161561093a576040517f08c379a0000000000000000000000000000000000000000000000000000000008152600401610931906137d8565b60405180910390fd5b600d600081548092919061094d90613827565b91905055506000600d5490506109633382611622565b6001600e60003373ffffffffffffffffffffffffffffffffffffffff1673ffffffffffffffffffffffffffffffffffffffff16815260200190815260200160002060006101000a81548160ff0219169083151502179055503373ffffffffffffffffffffffffffffffffffffffff167f25b428dfde728ccfaddad7e29e4ac23c24ed7fd1a6e3e3f91894a9a073f5dfff8242604051610a0392919061386f565b60405180910390a250565b6000600880549050905090565b610a2c610a26611517565b82611640565b610a6b576040517f08c379a0000000000000000000000000000000000000000000000000000000008152600401610a629061390a565b60405180910390fd5b610a768383836116d5565b505050565b6000600a6000838152602001908152602001600020600101549050919050565b7f3c11d16cbaffd01df69ce1c404f6340ee057498f5f00246190ea54220576a84881565b610ac882610a7b565b610ad1816119ce565b610adb83836119e2565b505050565b6000610aeb83610fc1565b8210610b2c576040517f08c379a0000000000000000000000000000000000000000000000000000000008152600401610b239061399c565b60405180910390fd5b600660008473ffffffffffffffffffffffffffffffffffffffff1673ffffffffffffffffffffffffffffffffffffffff168152602001908152602001600020600083815260200190815260200160002054905092915050565b610b8d611517565b73ffffffffffffffffffffffffffffffffffffffff168173ffffffffffffffffffffffffffffffffffffffff1614610bfa576040517f08c379a0000000000000000000000000000000000000000000000000000000008152600401610bf190613a2e565b60405180910390fd5b610c048282611ac3565b5050565b6000801b610c15816119ce565b81600f60006101000a81548160ff0219169083151502179055507f9ddd47c2f6885141f8b9fae4efb3b014c9924b43533c72f09e0a26a34b03c91182604051610c5e9190612f1e565b60405180910390a15050565b600e6020528060005260406000206000915054906101000a900460ff1681565b7f65d7a28e3265b37a6474929f336521b332c1681b933f6cb9f3376673440d862a610cb4816119ce565b610cbc611ba5565b50565b610cda838383604051806020016040528060008152506111eb565b505050565b610ce76115d8565b6000610cf282610f3b565b90508073ffffffffffffffffffffffffffffffffffffffff16610d13611517565b73ffffffffffffffffffffffffffffffffffffffff161480610d6f5750610d38611517565b73ffffffffffffffffffffffffffffffffffffffff16610d5783610748565b73ffffffffffffffffffffffffffffffffffffffff16145b80610d875750610d8681610d81611517565b6113be565b5b80610dbf5750610dbe7f3c11d16cbaffd01df69ce1c404f6340ee057498f5f00246190ea54220576a848610db9611517565b6110c7565b5b610dfe576040517f08c379a0000000000000000000000000000000000000000000000000000000008152600401610df590613a9a565b60405180910390fd5b610e0782611c08565b6000600e60008373ffffffffffffffffffffffffffffffffffffffff1673ffffffffffffffffffffffffffffffffffffffff16815260200190815260200160002060006101000a81548160ff0219169083151502179055503373ffffffffffffffffffffffffffffffffffffffff167f23ff0e75edf108e3d0392d92e13e8c8a868ef19001bd49f9e94876dc46dff87f8342604051610ea792919061386f565b60405180910390a25050565b6000610ebd610a0e565b8210610efe576040517f08c379a0000000000000000000000000000000000000000000000000000000008152600401610ef590613b2c565b60405180910390fd5b60088281548110610f1257610f11613b4c565b5b90600052602060002001549050919050565b6000600b60009054906101000a900460ff16905090565b600080610f4783611d56565b9050600073ffffffffffffffffffffffffffffffffffffffff168173ffffffffffffffffffffffffffffffffffffffff1603610fb8576040517f08c379a0000000000000000000000000000000000000000000000000000000008152600401610faf90613bc7565b60405180910390fd5b80915050919050565b60008073ffffffffffffffffffffffffffffffffffffffff168273ffffffffffffffffffffffffffffffffffffffff1603611031576040517f08c379a000000000000000000000000000000000000000000000000000000000815260040161102890613c59565b60405180910390fd5b600360008373ffffffffffffffffffffffffffffffffffffffff1673ffffffffffffffffffffffffffffffffffffffff168152602001908152602001600020549050919050565b6000801b81565b600f60009054906101000a900460ff1681565b7f65d7a28e3265b37a6474929f336521b332c1681b933f6cb9f3376673440d862a6110bc816119ce565b6110c4611d93565b50565b6000600a600084815260200190815260200160002060000160008373ffffffffffffffffffffffffffffffffffffffff1673ffffffffffffffffffffffffffffffffffffffff16815260200190815260200160002060009054906101000a900460ff16905092915050565b60606001805461114190613637565b80601f016020809104026020016040519081016040528092919081815260200182805461116d90613637565b80156111ba5780601f1061118f576101008083540402835291602001916111ba565b820191906000526020600020905b81548152906001019060200180831161119d57829003601f168201915b5050505050905090565b6000801b81565b6111dd6111d6611517565b8383611df6565b5050565b6000600d54905090565b6111fc6111f6611517565b83611640565b61123b576040517f08c379a00000000000000000000000000000000000000000000000000000000081526004016112329061390a565b60405180910390fd5b61124784848484611f62565b50505050565b6060600073ffffffffffffffffffffffffffffffffffffffff1661127083611d56565b73ffffffffffffffffffffffffffffffffffffffff16036112c6576040517f08c379a00000000000000000000000000000000000000000000000000000000081526004016112bd90613cc5565b60405180910390fd5b600c80546112d390613637565b80601f01602080910402602001604051908101604052809291908181526020018280546112ff90613637565b801561134c5780601f106113215761010080835404028352916020019161134c565b820191906000526020600020905b81548152906001019060200180831161132f57829003601f168201915b50505050509050919050565b61136182610a7b565b61136a816119ce565b6113748383611ac3565b505050565b6000801b611386816119ce565b81600c90816113959190613e91565b505050565b7f65d7a28e3265b37a6474929f336521b332c1681b933f6cb9f3376673440d862a81565b6000600560008473ffffffffffffffffffffffffffffffffffffffff1673ffffffffffffffffffffffffffffffffffffffff16815260200190815260200160002060008373ffffffffffffffffffffffffffffffffffffffff1673ffffffffffffffffffffffffffffffffffffffff16815260200190815260200160002060009054906101000a900460ff16905092915050565b60007f7965db0b000000000000000000000000000000000000000000000000000000007bffffffffffffffffffffffffffffffffffffffffffffffffffffffff1916827bffffffffffffffffffffffffffffffffffffffffffffffffffffffff191614806114c557506114c482611fbe565b5b9050919050565b6114d581612038565b611514576040517f08c379a000000000000000000000000000000000000000000000000000000000815260040161150b90613bc7565b60405180910390fd5b50565b600033905090565b816004600083815260200190815260200160002060006101000a81548173ffffffffffffffffffffffffffffffffffffffff021916908373ffffffffffffffffffffffffffffffffffffffff160217905550808273ffffffffffffffffffffffffffffffffffffffff1661159283610f3b565b73ffffffffffffffffffffffffffffffffffffffff167f8c5be1e5ebec7d5bd14f71427d1e84f3dd0314c0f7b2291e5b200ac8c7c3b92560405160405180910390a45050565b6115e0610f24565b15611620576040517f08c379a000000000000000000000000000000000000000000000000000000000815260040161161790613faf565b60405180910390fd5b565b61163c828260405180602001604052806000815250612079565b5050565b60008061164c83610f3b565b90508073ffffffffffffffffffffffffffffffffffffffff168473ffffffffffffffffffffffffffffffffffffffff16148061168e575061168d81856113be565b5b806116cc57508373ffffffffffffffffffffffffffffffffffffffff166116b484610748565b73ffffffffffffffffffffffffffffffffffffffff16145b91505092915050565b8273ffffffffffffffffffffffffffffffffffffffff166116f582610f3b565b73ffffffffffffffffffffffffffffffffffffffff161461174b576040517f08c379a000000000000000000000000000000000000000000000000000000000815260040161174290614041565b60405180910390fd5b600073ffffffffffffffffffffffffffffffffffffffff168273ffffffffffffffffffffffffffffffffffffffff16036117ba576040517f08c379a00000000000000000000000000000000000000000000000000000000081526004016117b1906140d3565b60405180910390fd5b6117c783838360016120d4565b8273ffffffffffffffffffffffffffffffffffffffff166117e782610f3b565b73ffffffffffffffffffffffffffffffffffffffff161461183d576040517f08c379a000000000000000000000000000000000000000000000000000000000815260040161183490614041565b60405180910390fd5b6004600082815260200190815260200160002060006101000a81549073ffffffffffffffffffffffffffffffffffffffff02191690556001600360008573ffffffffffffffffffffffffffffffffffffffff1673ffffffffffffffffffffffffffffffffffffffff168152602001908152602001600020600082825403925050819055506001600360008473ffffffffffffffffffffffffffffffffffffffff1673ffffffffffffffffffffffffffffffffffffffff16815260200190815260200160002060008282540192505081905550816002600083815260200190815260200160002060006101000a81548173ffffffffffffffffffffffffffffffffffffffff021916908373ffffffffffffffffffffffffffffffffffffffff160217905550808273ffffffffffffffffffffffffffffffffffffffff168473ffffffffffffffffffffffffffffffffffffffff167fddf252ad1be2c89b69c2b068fc378daa952ba7f163c4a11628f55a4df523b3ef60405160405180910390a46119c983838360016121b0565b505050565b6119df816119da611517565b6121b6565b50565b6119ec82826110c7565b611abf576001600a600084815260200190815260200160002060000160008373ffffffffffffffffffffffffffffffffffffffff1673ffffffffffffffffffffffffffffffffffffffff16815260200190815260200160002060006101000a81548160ff021916908315150217905550611a64611517565b73ffffffffffffffffffffffffffffffffffffffff168173ffffffffffffffffffffffffffffffffffffffff16837f2f8788117e7eff1d82e926ec794901d17c78024a50270940304540a733656f0d60405160405180910390a45b5050565b611acd82826110c7565b15611ba1576000600a600084815260200190815260200160002060000160008373ffffffffffffffffffffffffffffffffffffffff1673ffffffffffffffffffffffffffffffffffffffff16815260200190815260200160002060006101000a81548160ff021916908315150217905550611b46611517565b73ffffffffffffffffffffffffffffffffffffffff168173ffffffffffffffffffffffffffffffffffffffff16837ff6391f5c32d9c69d2a47ea670b442974b53935d1edc7fd64eb21e047a839171b60405160405180910390a45b5050565b611bad61223b565b6000600b60006101000a81548160ff0219169083151502179055507f5db9ee0a495bf2e6ff9c91a7834c1ba4fdd244a5e8aa4e537bd38aeae4b073aa611bf1611517565b604051611bfe919061308f565b60405180910390a1565b6000611c1382610f3b565b9050611c238160008460016120d4565b611c2c82610f3b565b90506004600083815260200190815260200160002060006101000a81549073ffffffffffffffffffffffffffffffffffffffff02191690556001600360008373ffffffffffffffffffffffffffffffffffffffff1673ffffffffffffffffffffffffffffffffffffffff168152602001908152602001600020600082825403925050819055506002600083815260200190815260200160002060006101000a81549073ffffffffffffffffffffffffffffffffffffffff021916905581600073ffffffffffffffffffffffffffffffffffffffff168273ffffffffffffffffffffffffffffffffffffffff167fddf252ad1be2c89b69c2b068fc378daa952ba7f163c4a11628f55a4df523b3ef60405160405180910390a4611d528160008460016121b0565b5050565b60006002600083815260200190815260200160002060009054906101000a900473ffffffffffffffffffffffffffffffffffffffff169050919050565b611d9b6115d8565b6001600b60006101000a81548160ff0219169083151502179055507f62e78cea01bee320cd4e420270b5ea74000d11b0c9f74754ebdbfc544b05a258611ddf611517565b604051611dec919061308f565b60405180910390a1565b8173ffffffffffffffffffffffffffffffffffffffff168373ffffffffffffffffffffffffffffffffffffffff1603611e64576040517f08c379a0000000000000000000000000000000000000000000000000000000008152600401611e5b9061413f565b60405180910390fd5b80600560008573ffffffffffffffffffffffffffffffffffffffff1673ffffffffffffffffffffffffffffffffffffffff16815260200190815260200160002060008473ffffffffffffffffffffffffffffffffffffffff1673ffffffffffffffffffffffffffffffffffffffff16815260200190815260200160002060006101000a81548160ff0219169083151502179055508173ffffffffffffffffffffffffffffffffffffffff168373ffffffffffffffffffffffffffffffffffffffff167f17307eab39ab6107e8899845ad3d59bd9653f200f220920489ca2b5937696c3183604051611f559190612f1e565b60405180910390a3505050565b611f6d8484846116d5565b611f7984848484612284565b611fb8576040517f08c379a0000000000000000000000000000000000000000000000000000000008152600401611faf906141d1565b60405180910390fd5b50505050565b60007f780e9d63000000000000000000000000000000000000000000000000000000007bffffffffffffffffffffffffffffffffffffffffffffffffffffffff1916827bffffffffffffffffffffffffffffffffffffffffffffffffffffffff1916148061203157506120308261240b565b5b9050919050565b60008073ffffffffffffffffffffffffffffffffffffffff1661205a83611d56565b73ffffffffffffffffffffffffffffffffffffffff1614159050919050565b61208383836124ed565b6120906000848484612284565b6120cf576040517f08c379a00000000000000000000000000000000000000000000000000000000081526004016120c6906141d1565b60405180910390fd5b505050565b6120dc6115d8565b600f60009054906101000a900460ff1680156121255750600073ffffffffffffffffffffffffffffffffffffffff168473ffffffffffffffffffffffffffffffffffffffff1614155b801561215e5750600073ffffffffffffffffffffffffffffffffffffffff168373ffffffffffffffffffffffffffffffffffffffff1614155b1561219e576040517f08c379a00000000000000000000000000000000000000000000000000000000081526004016121959061423d565b60405180910390fd5b6121aa8484848461270a565b50505050565b50505050565b6121c082826110c7565b612237576121cd81612868565b6121db8360001c6020612895565b6040516020016121ec929190614331565b6040516020818303038152906040526040517f08c379a000000000000000000000000000000000000000000000000000000000815260040161222e9190612fc9565b60405180910390fd5b5050565b612243610f24565b612282576040517f08c379a0000000000000000000000000000000000000000000000000000000008152600401612279906143b7565b60405180910390fd5b565b60006122a58473ffffffffffffffffffffffffffffffffffffffff16612ad1565b156123fe578373ffffffffffffffffffffffffffffffffffffffff1663150b7a026122ce611517565b8786866040518563ffffffff1660e01b81526004016122f0949392919061442c565b6020604051808303816000875af192505050801561232c57506040513d601f19601f82011682018060405250810190612329919061448d565b60015b6123ae573d806000811461235c576040519150601f19603f3d011682016040523d82523d6000602084013e612361565b606091505b5060008151036123a6576040517f08c379a000000000000000000000000000000000000000000000000000000000815260040161239d906141d1565b60405180910390fd5b805181602001fd5b63150b7a0260e01b7bffffffffffffffffffffffffffffffffffffffffffffffffffffffff1916817bffffffffffffffffffffffffffffffffffffffffffffffffffffffff191614915050612403565b600190505b949350505050565b60007f80ac58cd000000000000000000000000000000000000000000000000000000007bffffffffffffffffffffffffffffffffffffffffffffffffffffffff1916827bffffffffffffffffffffffffffffffffffffffffffffffffffffffff191614806124d657507f5b5e139f000000000000000000000000000000000000000000000000000000007bffffffffffffffffffffffffffffffffffffffffffffffffffffffff1916827bffffffffffffffffffffffffffffffffffffffffffffffffffffffff1916145b806124e657506124e582612af4565b5b9050919050565b600073ffffffffffffffffffffffffffffffffffffffff168273ffffffffffffffffffffffffffffffffffffffff160361255c576040517f08c379a000000000000000000000000000000000000000000000000000000000815260040161255390614506565b60405180910390fd5b61256581612038565b156125a5576040517f08c379a000000000000000000000000000000000000000000000000000000000815260040161259c90614572565b60405180910390fd5b6125b36000838360016120d4565b6125bc81612038565b156125fc576040517f08c379a00000000000000000000000000000000000000000000000000000000081526004016125f390614572565b60405180910390fd5b6001600360008473ffffffffffffffffffffffffffffffffffffffff1673ffffffffffffffffffffffffffffffffffffffff16815260200190815260200160002060008282540192505081905550816002600083815260200190815260200160002060006101000a81548173ffffffffffffffffffffffffffffffffffffffff021916908373ffffffffffffffffffffffffffffffffffffffff160217905550808273ffffffffffffffffffffffffffffffffffffffff16600073ffffffffffffffffffffffffffffffffffffffff167fddf252ad1be2c89b69c2b068fc378daa952ba7f163c4a11628f55a4df523b3ef60405160405180910390a46127066000838360016121b0565b5050565b61271684848484612b5e565b600181111561275a576040517f08c379a000000000000000000000000000000000000000000000000000000000815260040161275190614604565b60405180910390fd5b6000829050600073ffffffffffffffffffffffffffffffffffffffff168573ffffffffffffffffffffffffffffffffffffffff16036127a15761279c81612b64565b6127e0565b8373ffffffffffffffffffffffffffffffffffffffff168573ffffffffffffffffffffffffffffffffffffffff16146127df576127de8582612bad565b5b5b600073ffffffffffffffffffffffffffffffffffffffff168473ffffffffffffffffffffffffffffffffffffffff16036128225761281d81612d1a565b612861565b8473ffffffffffffffffffffffffffffffffffffffff168473ffffffffffffffffffffffffffffffffffffffff16146128605761285f8482612deb565b5b5b5050505050565b606061288e8273ffffffffffffffffffffffffffffffffffffffff16601460ff16612895565b9050919050565b6060600060028360026128a89190614624565b6128b29190614666565b67ffffffffffffffff8111156128cb576128ca613330565b5b6040519080825280601f01601f1916602001820160405280156128fd5781602001600182028036833780820191505090505b5090507f30000000000000000000000000000000000000000000000000000000000000008160008151811061293557612934613b4c565b5b60200101907effffffffffffffffffffffffffffffffffffffffffffffffffffffffffffff1916908160001a9053507f78000000000000000000000000000000000000000000000000000000000000008160018151811061299957612998613b4c565b5b60200101907effffffffffffffffffffffffffffffffffffffffffffffffffffffffffffff1916908160001a905350600060018460026129d99190614624565b6129e39190614666565b90505b6001811115612a83577f3031323334353637383961626364656600000000000000000000000000000000600f861660108110612a2557612a24613b4c565b5b1a60f81b828281518110612a3c57612a3b613b4c565b5b60200101907effffffffffffffffffffffffffffffffffffffffffffffffffffffffffffff1916908160001a905350600485901c945080612a7c9061469a565b90506129e6565b5060008414612ac7576040517f08c379a0000000000000000000000000000000000000000000000000000000008152600401612abe9061470f565b60405180910390fd5b8091505092915050565b6000808273ffffffffffffffffffffffffffffffffffffffff163b119050919050565b60007f01ffc9a7000000000000000000000000000000000000000000000000000000007bffffffffffffffffffffffffffffffffffffffffffffffffffffffff1916827bffffffffffffffffffffffffffffffffffffffffffffffffffffffff1916149050919050565b50505050565b6008805490506009600083815260200190815260200160002081905550600881908060018154018082558091505060019003906000526020600020016000909190919091505550565b60006001612bba84610fc1565b612bc4919061472f565b9050600060076000848152602001908152602001600020549050818114612ca9576000600660008673ffffffffffffffffffffffffffffffffffffffff1673ffffffffffffffffffffffffffffffffffffffff168152602001908152602001600020600084815260200190815260200160002054905080600660008773ffffffffffffffffffffffffffffffffffffffff1673ffffffffffffffffffffffffffffffffffffffff168152602001908152602001600020600084815260200190815260200160002081905550816007600083815260200190815260200160002081905550505b6007600084815260200190815260200160002060009055600660008573ffffffffffffffffffffffffffffffffffffffff1673ffffffffffffffffffffffffffffffffffffffff16815260200190815260200160002060008381526020019081526020016000206000905550505050565b60006001600880549050612d2e919061472f565b9050600060096000848152602001908152602001600020549050600060088381548110612d5e57612d5d613b4c565b5b906000526020600020015490508060088381548110612d8057612d7f613b4c565b5b906000526020600020018190555081600960008381526020019081526020016000208190555060096000858152602001908152602001600020600090556008805480612dcf57612dce614763565b5b6001900381819060005260206000200160009055905550505050565b6000612df683610fc1565b905081600660008573ffffffffffffffffffffffffffffffffffffffff1673ffffffffffffffffffffffffffffffffffffffff168152602001908152602001600020600083815260200190815260200160002081905550806007600084815260200190815260200160002081905550505050565b6000604051905090565b600080fd5b600080fd5b60007fffffffff0000000000000000000000000000000000000000000000000000000082169050919050565b612eb381612e7e565b8114612ebe57600080fd5b50565b600081359050612ed081612eaa565b92915050565b600060208284031215612eec57612eeb612e74565b5b6000612efa84828501612ec1565b91505092915050565b60008115159050919050565b612f1881612f03565b82525050565b6000602082019050612f336000830184612f0f565b92915050565b600081519050919050565b600082825260208201905092915050565b60005b83811015612f73578082015181840152602081019050612f58565b60008484015250505050565b6000601f19601f8301169050919050565b6000612f9b82612f39565b612fa58185612f44565b9350612fb5818560208601612f55565b612fbe81612f7f565b840191505092915050565b60006020820190508181036000830152612fe38184612f90565b905092915050565b6000819050919050565b612ffe81612feb565b811461300957600080fd5b50565b60008135905061301b81612ff5565b92915050565b60006020828403121561303757613036612e74565b5b60006130458482850161300c565b91505092915050565b600073ffffffffffffffffffffffffffffffffffffffff82169050919050565b60006130798261304e565b9050919050565b6130898161306e565b82525050565b60006020820190506130a46000830184613080565b92915050565b6130b38161306e565b81146130be57600080fd5b50565b6000813590506130d0816130aa565b92915050565b600080604083850312156130ed576130ec612e74565b5b60006130fb858286016130c1565b925050602061310c8582860161300c565b9150509250929050565b61311f81612feb565b82525050565b600060208201905061313a6000830184613116565b92915050565b60008060006060848603121561315957613158612e74565b5b6000613167868287016130c1565b9350506020613178868287016130c1565b92505060406131898682870161300c565b9150509250925092565b6000819050919050565b6131a681613193565b81146131b157600080fd5b50565b6000813590506131c38161319d565b92915050565b6000602082840312156131df576131de612e74565b5b60006131ed848285016131b4565b91505092915050565b6131ff81613193565b82525050565b600060208201905061321a60008301846131f6565b92915050565b6000806040838503121561323757613236612e74565b5b6000613245858286016131b4565b9250506020613256858286016130c1565b9150509250929050565b61326981612f03565b811461327457600080fd5b50565b60008135905061328681613260565b92915050565b6000602082840312156132a2576132a1612e74565b5b60006132b084828501613277565b91505092915050565b6000602082840312156132cf576132ce612e74565b5b60006132dd848285016130c1565b91505092915050565b600080604083850312156132fd576132fc612e74565b5b600061330b858286016130c1565b925050602061331c85828601613277565b9150509250929050565b600080fd5b600080fd5b7f4e487b7100000000000000000000000000000000000000000000000000000000600052604160045260246000fd5b61336882612f7f565b810181811067ffffffffffffffff8211171561338757613386613330565b5b80604052505050565b600061339a612e6a565b90506133a6828261335f565b919050565b600067ffffffffffffffff8211156133c6576133c5613330565b5b6133cf82612f7f565b9050602081019050919050565b82818337600083830152505050565b60006133fe6133f9846133ab565b613390565b90508281526020810184848401111561341a5761341961332b565b5b6134258482856133dc565b509392505050565b600082601f83011261344257613441613326565b5b81356134528482602086016133eb565b91505092915050565b6000806000806080858703121561347557613474612e74565b5b6000613483878288016130c1565b9450506020613494878288016130c1565b93505060406134a58782880161300c565b925050606085013567ffffffffffffffff8111156134c6576134c5612e79565b5b6134d28782880161342d565b91505092959194509250565b600067ffffffffffffffff8211156134f9576134f8613330565b5b61350282612f7f565b9050602081019050919050565b600061352261351d846134de565b613390565b90508281526020810184848401111561353e5761353d61332b565b5b6135498482856133dc565b509392505050565b600082601f83011261356657613565613326565b5b813561357684826020860161350f565b91505092915050565b60006020828403121561359557613594612e74565b5b600082013567ffffffffffffffff8111156135b3576135b2612e79565b5b6135bf84828501613551565b91505092915050565b600080604083850312156135df576135de612e74565b5b60006135ed858286016130c1565b92505060206135fe858286016130c1565b9150509250929050565b7f4e487b7100000000000000000000000000000000000000000000000000000000600052602260045260246000fd5b6000600282049050600182168061364f57607f821691505b60208210810361366257613661613608565b5b50919050565b7f4552433732313a20617070726f76616c20746f2063757272656e74206f776e6560008201527f7200000000000000000000000000000000000000000000000000000000000000602082015250565b60006136c4602183612f44565b91506136cf82613668565b604082019050919050565b600060208201905081810360008301526136f3816136b7565b9050919050565b7f4552433732313a20617070726f76652063616c6c6572206973206e6f7420746f60008201527f6b656e206f776e6572206f7220617070726f76656420666f7220616c6c000000602082015250565b6000613756603d83612f44565b9150613761826136fa565b604082019050919050565b6000602082019050818103600083015261378581613749565b9050919050565b7f4f6e6c79206f6e652070617373207065722077616c6c65740000000000000000600082015250565b60006137c2601883612f44565b91506137cd8261378c565b602082019050919050565b600060208201905081810360008301526137f1816137b5565b9050919050565b7f4e487b7100000000000000000000000000000000000000000000000000000000600052601160045260246000fd5b600061383282612feb565b91507fffffffffffffffffffffffffffffffffffffffffffffffffffffffffffffffff8203613864576138636137f8565b5b600182019050919050565b60006040820190506138846000830185613116565b6138916020830184613116565b9392505050565b7f4552433732313a2063616c6c6572206973206e6f7420746f6b656e206f776e6560008201527f72206f7220617070726f76656400000000000000000000000000000000000000602082015250565b60006138f4602d83612f44565b91506138ff82613898565b604082019050919050565b60006020820190508181036000830152613923816138e7565b9050919050565b7f455243373231456e756d657261626c653a206f776e657220696e646578206f7560008201527f74206f6620626f756e6473000000000000000000000000000000000000000000602082015250565b6000613986602b83612f44565b91506139918261392a565b604082019050919050565b600060208201905081810360008301526139b581613979565b9050919050565b7f416363657373436f6e74726f6c3a2063616e206f6e6c792072656e6f756e636560008201527f20726f6c657320666f722073656c660000000000000000000000000000000000602082015250565b6000613a18602f83612f44565b9150613a23826139bc565b604082019050919050565b60006020820190508181036000830152613a4781613a0b565b9050919050565b7f4e6f7420617574686f72697a656420746f206275726e00000000000000000000600082015250565b6000613a84601683612f44565b9150613a8f82613a4e565b602082019050919050565b60006020820190508181036000830152613ab381613a77565b9050919050565b7f455243373231456e756d657261626c653a20676c6f62616c20696e646578206f60008201527f7574206f6620626f756e64730000000000000000000000000000000000000000602082015250565b6000613b16602c83612f44565b9150613b2182613aba565b604082019050919050565b60006020820190508181036000830152613b4581613b09565b9050919050565b7f4e487b7100000000000000000000000000000000000000000000000000000000600052603260045260246000fd5b7f4552433732313a20696e76616c696420746f6b656e2049440000000000000000600082015250565b6000613bb1601883612f44565b9150613bbc82613b7b565b602082019050919050565b60006020820190508181036000830152613be081613ba4565b9050919050565b7f4552433732313a2061646472657373207a65726f206973206e6f74206120766160008201527f6c6964206f776e65720000000000000000000000000000000000000000000000602082015250565b6000613c43602983612f44565b9150613c4e82613be7565b604082019050919050565b60006020820190508181036000830152613c7281613c36565b9050919050565b7f4e6f6e6578697374656e7420746f6b656e000000000000000000000000000000600082015250565b6000613caf601183612f44565b9150613cba82613c79565b602082019050919050565b60006020820190508181036000830152613cde81613ca2565b9050919050565b60008190508160005260206000209050919050565b60006020601f8301049050919050565b600082821b905092915050565b600060088302613d477fffffffffffffffffffffffffffffffffffffffffffffffffffffffffffffffff82613d0a565b613d518683613d0a565b95508019841693508086168417925050509392505050565b6000819050919050565b6000613d8e613d89613d8484612feb565b613d69565b612feb565b9050919050565b6000819050919050565b613da883613d73565b613dbc613db482613d95565b848454613d17565b825550505050565b600090565b613dd1613dc4565b613ddc818484613d9f565b505050565b5b81811015613e0057613df5600082613dc9565b600181019050613de2565b5050565b601f821115613e4557613e1681613ce5565b613e1f84613cfa565b81016020851015613e2e578190505b613e42613e3a85613cfa565b830182613de1565b50505b505050565b600082821c905092915050565b6000613e6860001984600802613e4a565b1980831691505092915050565b6000613e818383613e57565b9150826002028217905092915050565b613e9a82612f39565b67ffffffffffffffff811115613eb357613eb2613330565b5b613ebd8254613637565b613ec8828285613e04565b600060209050601f831160018114613efb5760008415613ee9578287015190505b613ef38582613e75565b865550613f5b565b601f198416613f0986613ce5565b60005b82811015613f3157848901518255600182019150602085019450602081019050613f0c565b86831015613f4e5784890151613f4a601f891682613e57565b8355505b6001600288020188555050505b505050505050565b7f5061757361626c653a2070617573656400000000000000000000000000000000600082015250565b6000613f99601083612f44565b9150613fa482613f63565b602082019050919050565b60006020820190508181036000830152613fc881613f8c565b9050919050565b7f4552433732313a207472616e736665722066726f6d20696e636f72726563742060008201527f6f776e6572000000000000000000000000000000000000000000000000000000602082015250565b600061402b602583612f44565b915061403682613fcf565b604082019050919050565b6000602082019050818103600083015261405a8161401e565b9050919050565b7f4552433732313a207472616e7366657220746f20746865207a65726f2061646460008201527f7265737300000000000000000000000000000000000000000000000000000000602082015250565b60006140bd602483612f44565b91506140c882614061565b604082019050919050565b600060208201905081810360008301526140ec816140b0565b9050919050565b7f4552433732313a20617070726f766520746f2063616c6c657200000000000000600082015250565b6000614129601983612f44565b9150614134826140f3565b602082019050919050565b600060208201905081810360008301526141588161411c565b9050919050565b7f4552433732313a207472616e7366657220746f206e6f6e20455243373231526560008201527f63656976657220696d706c656d656e7465720000000000000000000000000000602082015250565b60006141bb603283612f44565b91506141c68261415f565b604082019050919050565b600060208201905081810360008301526141ea816141ae565b9050919050565b7f536f756c626f756e643a207472616e73666572732064697361626c6564000000600082015250565b6000614227601d83612f44565b9150614232826141f1565b602082019050919050565b600060208201905081810360008301526142568161421a565b9050919050565b600081905092915050565b7f416363657373436f6e74726f6c3a206163636f756e7420000000000000000000600082015250565b600061429e60178361425d565b91506142a982614268565b601782019050919050565b60006142bf82612f39565b6142c9818561425d565b93506142d9818560208601612f55565b80840191505092915050565b7f206973206d697373696e6720726f6c6520000000000000000000000000000000600082015250565b600061431b60118361425d565b9150614326826142e5565b601182019050919050565b600061433c82614291565b915061434882856142b4565b91506143538261430e565b915061435f82846142b4565b91508190509392505050565b7f5061757361626c653a206e6f7420706175736564000000000000000000000000600082015250565b60006143a1601483612f44565b91506143ac8261436b565b602082019050919050565b600060208201905081810360008301526143d081614394565b9050919050565b600081519050919050565b600082825260208201905092915050565b60006143fe826143d7565b61440881856143e2565b9350614418818560208601612f55565b61442181612f7f565b840191505092915050565b60006080820190506144416000830187613080565b61444e6020830186613080565b61445b6040830185613116565b818103606083015261446d81846143f3565b905095945050505050565b60008151905061448781612eaa565b92915050565b6000602082840312156144a3576144a2612e74565b5b60006144b184828501614478565b91505092915050565b7f4552433732313a206d696e7420746f20746865207a65726f2061646472657373600082015250565b60006144f0602083612f44565b91506144fb826144ba565b602082019050919050565b6000602082019050818103600083015261451f816144e3565b9050919050565b7f4552433732313a20746f6b656e20616c7265616479206d696e74656400000000600082015250565b600061455c601c83612f44565b915061456782614526565b602082019050919050565b6000602082019050818103600083015261458b8161454f565b9050919050565b7f455243373231456e756d657261626c653a20636f6e736563757469766520747260008201527f616e7366657273206e6f7420737570706f727465640000000000000000000000602082015250565b60006145ee603583612f44565b91506145f982614592565b604082019050919050565b6000602082019050818103600083015261461d816145e1565b9050919050565b600061462f82612feb565b915061463a83612feb565b925082820261464881612feb565b9150828204841483151761465f5761465e6137f8565b5b5092915050565b600061467182612feb565b915061467c83612feb565b9250828201905080821115614694576146936137f8565b5b92915050565b60006146a582612feb565b9150600082036146b8576146b76137f8565b5b600182039050919050565b7f537472696e67733a20686578206c656e67746820696e73756666696369656e74600082015250565b60006146f9602083612f44565b9150614704826146c3565b602082019050919050565b60006020820190508181036000830152614728816146ec565b9050919050565b600061473a82612feb565b915061474583612feb565b925082820390508181111561475d5761475c6137f8565b5b92915050565b7f4e487b7100000000000000000000000000000000000000000000000000000000600052603160045260246000fdfea26469706673582212202cc9e67ce50a96d2254c31b0f236a324ebc679ed4cddd7ba97c9d9d8c739eade64736f6c63430008140033",
  "linkReferences": {},
  "deployedLinkReferences": {}
}